:10000000800B0120F1100000A7F30100DD100000BB
:10001000DD100000DD100000DD1000000000000019
:10002000000000000000000000000000F1110000CE
:10003000DD1000000000000055110000DD10000080
:10004000891400008914000089140000891400003C
:10005000891400008914000089140000891400002C
:10006000891400008914000089140000891400001C
:10007000891400008914000089140000891400000C
:1000800089140000891400008914000089140000FC
:1000900089140000891400008914000089140000EC
:1000A00089140000891400008914000089140000DC
:1000B00089140000891400008914000089140000CC
:1000C00089140000891400008914000089140000BC
:1000D00089140000891400008914000089140000AC
:1000E000891400008914000089140000891400009C
:1000F000891400008914000089140000891400008C
:1001000053B94AB9002908BF00281CBF4FF0FF317E
:100110004FF0FF3000F00CB8ADF1080C6DE904CEE3
:1001200000F022F8DDF804E0DDE9022304B07047B6
:10013000704700BF10F8012B11F8013B012A28BFBE
:100140009A42F7D0D01A7047034611F8012B03F8F2
:10015000012B002AF9D17047034613F8012B002A1E
:10016000FBD1181A013870472DE9F04786468C46B6
:100170000846089E154674461946002B40F0C2807A
:100180008542B2FA82F245D94AB1C2F1200300FA9F
:1001900002FC2EFA03F3954043EA0C0C94404FEA1C
:1001A000154EA8B2BCFBFEF8230C0EFB18CC08FBC6
:1001B00000F943EA0C43994528D9EB1808F1FF37B9
:1001C00004D2994502D9A8F102072B44A3EB0903F5
:1001D000A4B2B3FBFEFC0EFB1C330CFB00F044EAA4
:1001E0000344A04214D92C190CF1FF3304D2A042CD
:1001F00002D9ACF102032C44241A43EA07401EB191
:10020000D440002334607360BDE8F0874746DDE7E3
:100210006346F1E792BB431B01214FEA154EAFB293
:10022000B3FBFEFC200C0EFB1C330CFB07F840EA72
:100230000343984562D9EB180CF1FF3004D298457E
:1002400002D9ACF102002B44A3EB0803A4B2B3FB28
:10025000FEFC0EFB1C330CFB07F744EA0344A742E9
:100260004ED92C190CF1FF3304D2A74202D9ACF1BC
:1002700002032C44E41B43EA0040C0E7C2F1200320
:1002800020FA03F1954090402EFA03F303434FEA1E
:10029000154EAFB2B1FBFEFC0EFB1C10190C0CFB93
:1002A00007F841EA0041884504FA02F422D96918A6
:1002B0000CF1FF3004D2884502D9ACF10200294488
:1002C000A1EB08019BB2B1FBFEFC0EFB1C110CFB69
:1002D00007F743EA01439F420ED9EB180CF1FF31B7
:1002E00004D29F4202D9ACF102012B44DB1B41EA4C
:1002F000004192E76046E3E76146F7E76046A3E71F
:100300006346B7E7834206D916B9002108467BE762
:10031000C6E900E0F9E7B3FA83F78FB9834201D366
:10032000724508D8BEEB020460EB030301209C4633
:100330001EB9002168E73846FAE7C6E9004CF8E73D
:10034000C7F1200CBB4022FA0CF41C432EFA0CF12E
:1003500020FA0CF3B84001434FEA14490EFA07F5AE
:10036000B3FBF9F81FFA84FE09FB18300B0C08FBED
:100370000EFA43EA00439A4502FA07F240D9E3181D
:1003800008F1FF3004D29A4502D9A8F102002344B3
:10039000A3EB0A0389B2B3FBF9F809FB183308FB96
:1003A0000EFE41EA03418E452CD9611808F1FF3356
:1003B00004D28E4502D9A8F10203214443EA004049
:1003C000A0FB0298A1EB0E014145CE46434602D365
:1003D00006D14D4504D2B9EB020E68EB0403013897
:1003E000002EA6D0B5EB0E0261EB030101FA0CFC66
:1003F00022FA07F34CEA0303F940C6E9003198E713
:100400004046C5E74346D9E72DE9F04F91B0054690
:100410009A4600242823CDE906438946039221F019
:1004200051F806A9284621F0EEF90746002800F009
:10043000D78083793A2B18D107990C940423284646
:100440000D9321F08EF80CA9284621F0DCF918B1A3
:1004500090F90030A34205DB6FF01505284611B076
:10046000BDE8F08F284621F02DF808AA07F108030F
:1004700007F11806934618685968144603C40833F0
:10048000B3422246F7D10CAA07F128069046186815
:100490005968144603C40833B3422246F7D1BB79E6
:1004A000112B64D0062B64D0AB680021002B5AD1ED
:1004B0009FED4F7B95F821308DED007B022202FBF2
:1004C0000311A8693A23043102F0B8FC044600285D
:1004D00000F0898095F8212005F1220121F078F9BA
:1004E000061E3BDBA36895F82B20D96804F12C008D
:1004F00031F027F895F82B2005F12C01204621F04A
:1005000067F9061E2ADBA06895F82B100C301EF048
:10051000C0FFA66895F8212056F80C1F04F12200B0
:1005200031F00FF895F8211030461EF0B2FF95F823
:100530002B3084F8213095F8213084F82B303B7E25
:10054000FF2B414603D1A0691FF0B1FF01465A4677
:10055000204621F007FB70B16FF00406204620F022
:100560005EFF35467AE71A8A5B6811449EE73021C0
:100570009EE73C219CE74946039A204621F0DBF99F
:1005800001460028E8D1B9F1040F24D19AFA8AF380
:100590004A4605A92046059321F01AF90646204649
:1005A00020F064FF0246002ED8D12946204621F0D3
:1005B00003F805460028D1D1204620F083FF3A21D8
:1005C000204621F032FB0022002320461FF0CEF906
:1005D0000028C3DB42E70422204620F0CDFFDDE700
:1005E0006FF004053AE76FF00B0537E7AFF30080D3
:1005F00000800000000000002DE9F04F3A4ED6F8D0
:1006000004339A0787B00BD5D6F8043143B1374A83
:100610000023C6F80431D6F804311368013313609F
:10062000334DDFF8D4A00024A9464FF48038D6F823
:10063000042308FA04F717422ED0BFF35B8F012280
:10064000A2402C4BD24353E8001F01EA020043E8CA
:10065000000CBCF1000FF6D1BFF35B8F21FA04F25E
:10066000D30702D45AF82420B2B1204623F0C6F9A9
:1006700005F0DEFCEFF3118B202282F31288BFF32A
:100680006F8F09EB041CDCE90223904299410BD2E5
:100690008BF31188BFF36F8F0134042C05F1100523
:1006A000C5D107B0BDE8F08FCDE904239FED0C7BE9
:1006B000D5E900130020286003938CED027B2046CF
:1006C000C6F8487323F09AF98BF31188BFF36F8F44
:1006D0000029E1D0039B0093DDE904238847DBE791
:1006E000FFFFFFFFFFFFFFFF00100140548F0020BE
:1006F000C0170020488F002040110140F7B5144D6D
:10070000144E0446A3681B6933B101220DF10701A1
:1007100020469847012801D003B0F0BD9DF807207E
:100720002B680A2A01D00D2A09D10027F75409495C
:1007300009480022002324F08BFA2F60E2E7FE2B09
:1007400097BF591C0023F254296088BF2B60D9E75A
:10075000D0880020A4B60020E0090020F0B51E4893
:100760001E4CC1B01EF0C1FC1D48206024F0CAF927
:1007700028B91C4841B0BDE8F0401EF0B6BC206866
:10078000836823B11B6C13B1174900229847206876
:1007900083681B6A03B19847144E154F4FF0FF3220
:1007A0004FF0FF33694630460DF0BAF80028F5D116
:1007B000694638461EF099FC20680A211EF0B7FAF7
:1007C0006D4615F8011B206819B90A211EF0AFFA11
:1007D000E4E71EF0ACFAF4E7A0200300D488002080
:1007E000E0160300B9200300FD060000E009002028
:1007F000C9200300014B1B68184700BF0000002000
:10080000014B1860704700BF0000002030B585B074
:1008100004460D4610220021684630F0BAFE02233D
:100820008DF802302A46044B0193214668461DF09C
:100830000DF905B030BD00BFF507000080B50546D5
:100840000E46174698460DF01DFF034630F0B2FEE7
:10085000DFF81890044649F80030424630463946E1
:10086000A84754F8090000F05FFC00BF0800000032
:100870002DE9F047858B04462807904611D40229BC
:1008800005F0070540F0CC8020461EF056FC78B1FC
:100890000138A18B042811D8DFE800F0C2106D8563
:1008A000950001290CBF45F0100545F02005A583F2
:1008B00088F31188BFF36F8FBDE8F08701F0070A56
:1008C000AA4500F0A5800027B9463E46A368002B44
:1008D00000F0BC8041F00801A18388F31188BFF3C8
:1008E0006F8FA168002900F0BA800D68002900F020
:1008F000B680D1F80480334652462046C047002DCA
:1009000076D02B6829461D46F0E701F007035A1FF1
:10091000012A1BD8002221F00701062B276889B283
:10092000C4E9002209D13B4603E0E28B0132E283B5
:100930001B68002BF9D141F00201A18320461EF073
:10094000FCFB00287AD041F0200176E0042B0AD18C
:1009500021F0070189B2A18320461EF0EEFB10B101
:1009600041F02001A183A18B01F0070AAA454FD0D5
:100970000027B946AAE7236921F0070141F00601E3
:10098000062DD3F80090A1832DD1B9F1000F3FD0EF
:1009900041F00801A18388F31188BFF36F8F3A49B2
:1009A0002046C84729E021F00701236941F00401EE
:1009B00089B2042DD3F80490A183E6D000273E46E7
:1009C0004FF0040A82E721F00701236941F0050195
:1009D00089B2052DD3F80890A183D6D000273E46D2
:1009E0004FF0050A72E700273E464FF0060A6DE712
:1009F0002B4687E7B9F1000FD1D1EFF311882023FF
:100A000083F31288BFF36F8FA38B23F00803A383B4
:100A1000A58BEA062ED525F01003A38305F0070564
:100A2000A669A18B002EBFF670AF00232768C4E92A
:100A3000003321F0070141F00101A183A18B01F0F6
:100A4000070AAA454FF000097FF440AF002F9CD061
:100A500041F00801A18388F31188BFF36F8F002F45
:100A6000C8D03D6839463346524620461EF091FBB9
:100A70002F46F4E7AB067FF51BAF25F02003A383D9
:100A800005F0070500E700BFBFF10100014B03605F
:100A900000207047481B03002DE9F0410C4B1C68F7
:100AA00005460E4617467CB100F03CF863682046C8
:100AB000D3F8108032463B462946C047044600F032
:100AC0003BF82046BDE8F0816FF00104F9E700BF74
:100AD000D88800201FB5CDE90101039200F022F86B
:100AE000074B1C6824B900F027F8204604B010BD5D
:100AF000636820461B6801A998472468F2E700BF95
:100B0000DC880020024B0022C3E90022704700BFAE
:100B1000DC880020024B0022C3E90022FFF7F2BF6D
:100B2000E488002003484FF0FF324FF0FF330CF011
:100B300059BF00BFCC09002001480CF0CBBF00BF5B
:100B4000CC09002038B5094DFFF7ECFF2B783BB9F5
:100B5000FFF7E0FF1EF01CFC044610B901232B70C8
:100B60000024FFF7E9FF204638BD00BFA4B70020EE
:100B700038B50C4615461EF00DFC034B43F83050BB
:100B800003EBC0035C6038BD0C07002008B50348C8
:100B9000034A0021121A1EF0FEFB08BD800B002044
:100BA000B4C700200748084A084908B5121A1EF0C1
:100BB000F4FB0748074A0849BDE80840121A1EF02E
:100BC000ECBB00BF00000020440B0020D029030034
:100BD0000000002000000020D02903002DE9F04192
:100BE000074686B00C46002930D0D1E901231F48C2
:100BF0000968DFF890801EF078FAD4E90423E168F0
:100C00001B481EF072FAE1691A481EF06EFA264679
:100C10000025F36A0493EB1C0393B36A0293AB1CA5
:100C20000193736A0093326A6B1C2946404604356F
:100C30001EF05BFA102D06F11006EAD1216E0E4867
:100C40001EF053FAA1690D481EF04FFA012F05D18D
:100C5000EFF305810A4810391EF047FA214638465D
:100C600006B0BDE8F0410CF05FBC00BFD22003002D
:100C70000221030032210300862103009621030094
:100C8000C52103004221030030BFFFF7FDBF00BFB5
:100C90002DE9F0410B4EDFF8348006EB0807CC1B42
:100CA000054632460849204630F04BFCA019424622
:100CB0000021083C30F06DFC6C6707F10800BDE8CE
:100CC000F08100BF00000000581803000800000079
:100CD000054B9A699B689A421FBF044A536843F0C8
:100CE00080535360704700BFF8B4002000ED00E06F
:100CF0002DE9F843324D80463248894617461EF0AA
:100D0000F4F9AB6ADE0622D52F481EF0EEF9112465
:100D1000AB6A1D0703D52D481EF0E7F91224284DB4
:100D2000AB6A980715D52A481EF0DFF96E6BAB6ADF
:100D3000190642D5274831461EF0D7F9B9F1000F00
:100D400003D0AB6A23F08003AB62132403E01024CA
:100D5000DEE76FF015061A4DAB6ADA0703D51E48B9
:100D60001EF0C3F91424AB6A9B0603D51B481EF082
:100D7000BCF91524124B9A6AD50602D49A6A9007D8
:100D80000AD55B68190507D54146304600F004FBDB
:100D900010B180F309880224094B9A6A920642BF77
:100DA0005A6A22F400525A629A6A42F0FF029A6228
:100DB00000233B702046BDE8F8836FF01506C4E7BA
:100DC00000ED00E0D9210300F021030024220300FC
:100DD0003822030051220300682203008822030006
:100DE00010B51D4C1D481EF080F9A36A990130D53D
:100DF0001B481EF07AF91E20A36ADA0103D51948B0
:100E00001EF073F91F20144CA36A1B0303D5164868
:100E10001EF06BF92120A36A590303D513481EF075
:100E200064F922200C4CA36A9A0303D510481EF0E3
:100E30005CF92320A36ADB0303D50E481EF055F9A5
:100E40002420054A936A6FEA03436FEA13439362CF
:100E500010BD1D20D0E700BF00ED00E0B822030068
:100E6000D1220300E5220300002303001F23030017
:100E7000452303006023030070B5244C0646244834
:100E80000D461EF032F9A36AD90435D521481EF06B
:100E90002CF91720A36A1A0503D51F481EF025F95F
:100EA00018201A4CA36A9B050FD51C481EF01DF98B
:100EB000A16BA36A180407D519481EF016F91EB1D4
:100EC000A36A23F40043A3621920104CA36A5905B6
:100ED00003D514481EF009F91A20A36ADA050DD5C6
:100EE00011481EF002F91B20084A936A43F47F431D
:100EF000936200232B7070BD1620CBE7A36A9B047E
:100F0000F2D50A481EF0F1F81C20EDE700ED00E0F4
:100F10008C230300A323030024220300B523030032
:100F2000CF230300E52303000124030088220300EC
:100F30002DE9F041584B5F689CB00546C7F30804A3
:100F4000002686F31188BFF36F8F02F07F43B3F161
:100F50007F4F06D102F00C03082B12D14F481EF030
:100F6000C4F8002635464FF00008E31E8DF80780D0
:100F7000092B7FD8DFE803F00A7478707E7E7E7ECE
:100F80007E7C10074CBF0D460126ECE74448424CDE
:100F90001EF0ABF88DF80780E36A9A0704D5414844
:100FA0001EF0A3F8002430E0E36A002B01DA3E488B
:100FB000F6E7E36A5B00F5D53C481EF096F86369F6
:100FC000AA6943F480736361BFF34F8FBFF36F8FE0
:100FD000636932F8022C23F480736361BFF34F8F8F
:100FE000BFF36F8F4DF602739A4209D0A36ADBB24A
:100FF00023B30DF1070201212846FFF779FE2DE00A
:1010000029682B481EF071F82C689DF8073093B9B9
:101010006822294602A830F094FA099BB6B3C3F3BC
:10102000080222B96FEA53236FEA4323099302A906
:101030002046FFF7D3FD1CB0BDE8F081A36A13F48E
:101040007F4F05D00DF107010120FFF715FF05E0E7
:10105000A36AB3F5803FA5D3FFF7C2FE0446D4E7E9
:101060000DF107020021C7E70DF107010020ECE7B1
:10107000104895E7104B1149114817F4F87FA4F177
:10108000100218BF19461EF030F88BE723F4FF73E7
:1010900023F00103CAE700BF00ED00E0482403008D
:1010A000742403008C240300AE240300BD24030039
:1010B000DD240300FA2403002F2403001A24030074
:1010C0001F250300044B5A6942F010025A615A6905
:1010D00022F008025A61704700ED00E0EFF308804B
:1010E000EFF3098101B57246FFF722FF01BD00BF92
:1010F0000B4880F3088808F06BFF202080F31188EC
:1011000008484FF40861401880F30988EFF3148011
:101110000221084380F31488BFF36F8F00F0CCF8EE
:10112000800B012080DE0020084B9B6883420BD19E
:10113000EFF3058343B1064B5A6842F080525A6080
:101140005A6A22F400425A620DF0A2BAF8B40020A2
:1011500000ED00E023498A6882F8C1E04FF03000DA
:101160001044EFF3098C80E8F01F1EF0100F03D13C
:1011700002F1800080EC108A202080F31288BFF3F7
:101180006F8F194F4FF000668A698A603E60506F1A
:10119000164C206092F9C1E0906F0023936780F3B2
:1011A00011881EF0100F03D00023E1EE103A03E087
:1011B00002F1800090EC108AEFF3148323F0040313
:1011C00083F31488BFF36F8F04B5104600F07AF9EB
:1011D000BDE8044002F1300090E8F01F8CF309886C
:1011E00070470000F8B4002004ED00E0EC88002017
:1011F0001EF0040F0CBFEFF30880EFF30980816944
:1012000011F8021C0229FFD001B572461EF0C7F882
:1012100001BD00BF0028ACBF00F16040064B4FEAA3
:101220004111ACBF00F5614000F00F00C9B2B4BF7E
:10123000195480F80013704714ED00E040B2002804
:1012400007DB044A4109012300F01F00834042F8F4
:101250002130704700E100E040B200280CDB430978
:10126000064900F01F0020330122824041F823206C
:10127000BFF34F8FBFF36F8F704700BF00E100E0F7
:10128000054B420900F01F0053F82220012303FA06
:1012900000F01040704700BF00E100E0044B054A39
:1012A00023F07F039360BFF34F8FBFF36F8F7047BF
:1012B0000000000000ED00E008B5FFF7EFFF104B65
:1012C000D3F8882022F47002C3F88820D3F888204D
:1012D00042F4A002C3F888204FF04042C3F8342201
:1012E000BFF34F8FBFF36F8F0023E1EE103AFFF78C
:1012F0004DFCFFF757FC00F0BBF80CF0EBF900BF1A
:1013000000ED00E042F8203C009B42F81C3C019BB1
:1013100042F8183C0A49029B42F8143C4FF0807393
:1013200042F8043C21F00101002342F8081C203A55
:1013300083674FF47D430265C0F8C030704700BF3B
:101340003D080000037B13F0020F124B03D190F80D
:10135000C120D20611D45A6B42F080425A63D0F8B1
:10136000C03019075CBF43F00803C0F8C030037BEE
:1013700043F002030373802070475A6B22F08042CF
:101380005A63D0F8C0301A0744BF23F00803C0F8EE
:10139000C030F0E700EF00E0094A0346906870B102
:1013A00013F1160F406E05D0A0F180029A4205D8C5
:1013B000834203D2814228BF00207047002070473B
:1013C000F8B40020104B9B6883421AD1EFF30580DC
:1013D000B8B9EFF31181202282F31288BFF36F8F27
:1013E0001A7B22F002021A73EFF3148323F0040332
:1013F00083F31488BFF36F8F81F31188BFF36F8F6E
:1014000070476FF015007047F8B4002008B5154616
:101410000E460022E1EE102AEFF3148222F00402BD
:1014200082F31488BFF36F8FBFF36F8F0B4A0C4B9F
:101430009060426F1A6000F045F82C4686F30988E8
:101440000020044B98472046002100220023024C34
:1014500020470000E3F301003D080000F8B400203D
:10146000EC880020014B10221A61704700ED00E06B
:10147000044800232021C2180133302B82F80013C6
:10148000F9D1704700E100E008B5EFF30583064AA3
:10149000103B02EBC30152F8330049688847BDE8AE
:1014A0000840FFF715BC00BF0C070020024B034AA1
:1014B0000348012100F07CB8000004200000002057
:1014C000481B030010B50446FFF73CFF626E03465D
:1014D0000548D21AC0E90023044B8360BDE81040E0
:1014E000012100F06FB800BFF088002000000B154C
:1014F000084AC2F898000B6823F01F03034343F027
:101500001003C2F89C308B6843F00103C2F8A0308E
:10151000704700BF00ED00E02DE9F043DFF8608088
:1015200085B00E461F4604464FF00009B14523DA48
:101530006068D8B13FB1411E08421BD17F2819D93C
:101540002368194216D1236801931DF06DFFA3682B
:1015500003430393D8F89050C5F30725D0B2013D5B
:10156000A84207D801A9FFF7C3FF421C09F10109EE
:101570000C34DBE76FF01502104605B0BDE8F083D0
:1015800000ED00E0044B0522C3F89420BFF34F8F19
:10159000BFF36F8F704700BF00ED00E0BFF35F8FB8
:1015A000024B0022C3F89420704700BF00ED00E01A
:1015B00010B5034C01232278FFF7AEFF207010BD59
:1015C000A5B7002008B50B4A00231278FFF7A4FF47
:1015D00010F1160F07D0084A0021D2F89030C3F35B
:1015E0000723984200DB08BDC2F89800C2F8A0109B
:1015F0000130F2E7A5B7002000ED00E02DE9F0434F
:10160000534B544CD3F890302568C3F307239D42C5
:1016100085B000F29A80FFF7C1FF00200C268542BA
:101620001AD14D4C4D4F25706846FFF72FFADFF861
:101630002081DFF82C9106460025AE4213D1237895
:1016400043490020D1F89020C2F30722934276DB71
:10165000FFF798FF002042E0616806FB0011FFF7EA
:1016600047FF0130DBE7009800EB05114FEA051C4E
:10167000CB683B40B3F5000F48D00AD8B3F5001F44
:1016800030D0B3F5800F36D0B3F5801F10D00135C0
:10169000D3E7B3F1807F42D0B3F1007FF7D150F8A8
:1016A0000C3088684A681DF0BFFE40F4802009E0D5
:1016B00050F80C3088684A681DF0B6FE40F088503B
:1016C00040F43020CDE901230390D8F89030207801
:1016D000C3F30723013B98422AD96FF0150005B0E8
:1016E000BDE8F08350F80C3088684A681DF09CFE15
:1016F00040EA0900E6E750F80C3088684A681DF0B7
:1017000093FE40F0007040F40030DBE750F80C30FE
:1017100088684A681DF088FE40F08270D2E750F871
:101720000C3088684A681DF07FFE40F08870C9E779
:1017300001A9FFF7DDFE237801332370A7E7C1F885
:101740009830C1F8A00001337CE74FF0FF30C6E7C6
:1017500000ED00E0541B0300A5B700200000F0FFDF
:101760000000081108B502481CF018F8FEE700BF99
:101770004225030008B5024B1B689847002008BDAE
:10178000FC880020034B044A1860937843F002035E
:1017900093707047FC8800200400002008B50649BB
:1017A000064821F00701C1F1005202F580221DF028
:1017B0005DFC002008BD00BF87500120008900208B
:1017C00003484FF0FF324FF0FF330CF00BB900BF6E
:1017D0001400002001480CF07DB900BF1400002067
:1017E00038B50546FFF7ECFF08482A4608211DF0EA
:1017F000CEFB044628B925B12FF0DCFE044B0C22A9
:101800001A50FFF7E7FF204638BD00BF00890020CF
:101810000C00000010B50446FFF7D2FF2146034834
:101820001DF076FBBDE81040FFF7D4BF0089002013
:1018300070B5A0FB01543CB92846FFF7D1FF06461E
:1018400040B90026304670BD2FF0B4FE044B0C2288
:101850001A50F6E72A4621462FF09BFEF2E700BF1A
:101860000C00000070B54169857A0C4E044659B1F0
:10187000437ADB0706D4302303FB05639B6A1B68AE
:101880009B6898470023636105EB4505214606EBFD
:101890000510BDE8704023F090BA00BF640A002034
:1018A000827A074B302101FB0233DA6A93F8223047
:1018B0001B33801A23F00303B0FBF3F0704700BF23
:1018C000640A002038B5074B827A302404FB0233C7
:1018D0009B6AD3E901240C601568FFF7E1FF04FB64
:1018E000005038BD640A00202DE9F04385B005465C
:1018F0006846039190461C4623F0B1FCDDE9006781
:10190000EFF31189202383F31288BFF36F8F2B8CA1
:10191000002B43D0EA8B9A4225D900220023284687
:101920000CF028F90446F0B189F31188BFF36F8FEA
:10193000039B002B43D032463B46684623F0B4FC61
:10194000A27A274B302101FB023320469B6A1B6899
:1019500003A91D68DDE90023A847606180BB20461C
:10196000FFF780FF26E0298C4B1E2B8489F311881A
:10197000BFF36F8F95F82230EA8BEC6A1B3323F0AC
:101980000303521A02FB0344154B164AEB1A1B11B0
:101990005343A37295F82230E372C9E789F31188A3
:1019A000BFF36F8F2346424628460CF0E3F8044607
:1019B0000028BDD10024204605B0BDE8F083636156
:1019C000012300252381039B6382E27A6560294617
:1019D00004F118002FF0DDFD63692582E360EAE77A
:1019E000640A0020ABAAAAAA70B50D4C302500B934
:1019F00070BD037A4668002BFAD0013BDBB203725C
:101A0000002BF5D1C3604360837A05FB03435B6A17
:101A100013B198473046EAE7FFF724FFFAE700BF23
:101A2000640A00200E4A0123C2F840354FF080427C
:101A30004FF08051C2F87835D1F83001082808D12C
:101A4000D1F83411052904D80648415C09B1C2F81F
:101A500038364FF080430122C3F8802500207047BC
:101A600000E001404725030020B1034B800143F013
:101A700001031847704700BFB0180300F7B50646CA
:101A80000D460D4883688AB21B6831469847002886
:101A900010DA00240CE02F1B042F28BF042721F0AC
:101AA000B9FF3A46019001A930192FF04AFD3C4494
:101AB000A542F0D803B0F0BDC016030010B5034630
:101AC0000548826814688AB21946A0470028B4BF46
:101AD0006FF00400002010BDC0160300034B084641
:101AE00019684A7802312FF02CBD00BF18890020F8
:101AF00070B50B2104461DF0B4FD0C2120461DF0ED
:101B0000B0FD134B134AC4B9C3E90024254623464C
:101B1000114A13600AF0B4FD0646C0B920466C6055
:101B20001FF0BAF80D4829460AF074FEC5E952665E
:101B30000748BDE870400AF087BD256805B1AD686B
:101B4000C3E900252368002BE2D01033E0E770BD25
:101B50000C890020C5F4010018890020A7F50100B8
:101B6000F8B506460AF044FD23F096FC1E4F0446E5
:101B700004B9F8BD94F91230002B33DBA368B3F13C
:101B80007F4F04D1E36823F07F43BB422AD0627CBD
:101B9000012A21D800230122706821461EF0CEFDC3
:101BA0000546F8B10AF024FD23F040FD0822014665
:101BB00020462FF08BFB95F83D30B0FA80F04009BD
:101BC00060F3820385F83D30A37C03F00103C3F189
:101BD000020385F8293005E0022A01D10023DBE762
:101BE000032AFBD06469C3E7FE00FC0038B54FF060
:101BF000FF324FF0FF3305461D481EF0A1F81D4B84
:101C00001B687BB11A684FF0FF344FF47A705BB9F0
:101C1000631C1BD1184823F0AFF9BDE838401448C5
:101C20001EF097B81A46EEE7D9691B8C491B00FBDA
:101C30000313002B09DD9C4228BF1C461AB1116812
:101C400013460A46E3E71146FAE700244FF400453D
:101C500040F2E73000214FF47A720023E4FB0501E3
:101C6000FEF74EFA02460B4603480CF0F5F9D4E7AE
:101C70007C090020208C0020C0140020F8B51EF044
:101C8000A8F94FF0FF3306464FF0FF321C481EF014
:101C900057F81C490B682BB100221C684FF47A7E60
:101CA00017463BB93046FFF7A1FFBDE8F84014489E
:101CB0001EF04FB8DD69188CAD1B0EFB0055002DD2
:101CC0009C460EDC186892B94D680860AB4200D1A2
:101CD000486093F822001F6067F3000083F8220039
:101CE000944654B12068234662460446D9E7106002
:101CF0004868834208BF4A60EBE72046F3E700BF2D
:101D00007C090020208C0020002808DD431E0548A7
:101D100000EB8310044B984228BF0020704700203E
:101D2000704700BFC40A0020040B002073B51EF0EA
:101D300050F9294E0023CDE9003304464FF0FF331C
:101D400026484FF0FF321DF0FBFF336873B353F8A2
:101D50002C2902B12C3AC4F1640401E013460A466E
:101D60005D6B2544002D10DC706803F12C0181426D
:101D7000DB6A08BF7360684633601DF0E4FEAAB1F9
:101D8000D16A0029EAD02C39E8E74FF4004440F248
:101D9000E73000214FF47A720023C5FB0401FEF7FF
:101DA000AFF902460B460E480CF056F90B481DF0F1
:101DB000D0FF009C74B12C3C012594F83C0084F8C1
:101DC0002950FFF7A1FF211D20F0BDFAE46A0CB1F4
:101DD0002C3CF2E702B070BD088C00207C0900208A
:101DE00030140020054B064A934205D0054A10687E
:101DF000002808BF1846704700207047C40A00201A
:101E0000040B00204C8C0020F8B54FF0FF33054642
:101E1000174610484FF0FF320E461DF091FF0E4B53
:101E20001B680BB11C6823B9BDE8F84009481DF0D8
:101E300090BF5A68AA4200D022B99B683A46314600
:101E4000284698471CB1226823461446EBE72246F1
:101E5000FAE700BF7C0900202489002038B5044639
:101E60000D461DF06FFF072120461DF0D6FE20B362
:101E7000636843B105B12B60002504F114001DF027
:101E800068FF284638BD4FF0FF324FF0FF330C4853
:101E90001DF056FF0B4BD3F8C82242B96360C3F85C
:101EA000C84205B12B6006481DF053FFE4E7044823
:101EB0001DF04FFF6FF00205DFE76FF08505DCE7EF
:101EC0007C0900203489002070B504461DF03AFFDB
:101ED0000B2120461DF0A1FE034604F1140053BB64
:101EE000656845B31DF035FF204620F0AAFE30BBE3
:101EF0001EF06FF84FF0FF334FF0FF32C5F8C0020D
:101F00000F481DF01DFF05F52F710E481DF025FE31
:101F10000C481DF018FE0A481DF01BFF0A4823F06C
:101F20007CF908430BD1BDE8704008484FF40042EB
:101F300000230CF091B8BDE870401DF00ABF70BDE1
:101F40007C090020008C00201014002000140020C8
:101F5000F7B51EF03EF8374E0023CDE900334FF0C1
:101F6000FF3205464FF0FF3333481DF0E9FE32687B
:101F7000B2B3A2F52F7312680AB1A2F52F72C5F59C
:101F80007A7701E013460A46D3F8C042391900298E
:101F900047DC706803F52F718142D3F8BC3208BF6B
:101FA0007360684633601DF0CEFDCAB1D2F8BC1232
:101FB0000029E7D0A1F52F71E4E704F57A744FF416
:101FC000004540F2E73000214FF47A720023E4FB31
:101FD0000501FEF795F802460B4618480CF03CF850
:101FE00015481DF0B6FE009C14B3154DA4F52F74D2
:101FF00094F8C43213480133DBB284F8C432A842E7
:1020000005D3D4F8BC429CB1A4F52F74F0E7426824
:10201000A24201D04030F2E7022BF2D8FFF754FF82
:10202000EFE7641B14F57A7FC7D100221346D4E78B
:1020300003B0F0BD008C00207C09002000140020BB
:10204000040B0020C40A002038B504461DF07AFEB7
:10205000656875B10A484FF0FF324FF0FF331DF04D
:102060006FFE084805F52F711DF077FD04481DF03F
:1020700070FE04F11400BDE838401DF06ABE00BFD8
:102080007C090020008C00202DE9F74F1C4DDFF863
:1020900074B001900F465D4501D3002426E0284628
:1020A0001DF050FE6C6805F1140A24B950461DF06D
:1020B00050FE4035EFE704F10408002604EB8612D9
:1020C0004FEA861992F83D20930713D538F8042C6F
:1020D000022A0FD10198802241461DF0AAFD48B185
:1020E00007B13D6050464C441DF033FE204603B01E
:1020F000BDE8F08F0136062E08F14008DED1D5E7A5
:10210000C40A0020040B0020F8B5134E134F4FF003
:10211000FF3204464FF0FF3330460D461DF010FEEF
:10212000012384F829301834214638461DF015FD66
:1021300038461DF008FD1DF04CFF2946024620469A
:102140001EF0D2FD0023064800220BF085FF30462A
:10215000BDE8F8401DF0FDBD7C090020188C002072
:10216000901400202DE9F74F234CDFF890A0804613
:102170000D464FF01C0B544507D245B12B6833B1C7
:10218000A34204D040345445F8D3002429E020462B
:102190001DF0D8FD676804F1140927B948461DF001
:1021A000D8FD4034E7E707F5C27100260BFB067344
:1021B00093F89831DB0718D531F8043C022B14D181
:1021C0008022404601911DF034FD019968B105B1AE
:1021D0002C601C2404FB0674484604F5C0741DF0F2
:1021E000B8FD204603B0BDE8F08F0136082E01F19E
:1021F0001C01DBD1D2E700BFC40A0020040B002081
:102200002DE9F8431E4CDFF87C9006460F464C45FE
:1022100007D246B1336833B1A34204D040344C45B1
:10222000F8D3002024E020461DF08CFD656804F101
:102230001408FDB195F885329A0707D595F88422E0
:10224000394605F51C701DF0F4FC58B995F8AD320F
:102250009B070FD595F8AC22394605F526701DF081
:10226000E8FC38B106B1346040461DF072FD012033
:10227000BDE8F88340461DF06CFD4034C7E700BF61
:10228000C40A0020040B002038B54B1C04460D4640
:102290001ED04FF0FF334FF0FF320E481DF050FDBF
:1022A00021460D481DF059FC0B481DF04CFC1DF05B
:1022B00090FE2946024620461EF016FD00230748E0
:1022C00000220BF0C9FEBDE8384002481DF041BDB8
:1022D00038BD00BF7C090020108C00206014002055
:1022E00010B590F825309B07044614D54FF0FF3207
:1022F0004FF0FF3308481DF023FD214607481DF02D
:102300002CFC0022204611461EF0EEFCBDE81040D9
:1023100001481DF01EBD10BD7C090020108C00205E
:1023200070B5104C4FF0FF324FF0FF3306460E48A9
:102330000D461DF005FD94F82230A188A26913F026
:10234000010304F1080007D0022905D1964203D108
:1023500029461DF090FC00B9002403481DF0F9FC4B
:10236000204670BD288C00207C09002038B5104C18
:102370004FF0FF324FF0FF3305460E481DF0E0FCF2
:1023800094F82230A088A169C3F3400213F001033E
:1023900005D052B1022802D115B18D4200D00024DF
:1023A00004481DF0D6FC204638BD1446F8E700BFAF
:1023B000288C00207C090020F8B5204C4FF0FF331A
:1023C000074616461E484FF0FF320D461DF0B8FC7A
:1023D00094F82230DA072ED40222A761A28043F0BB
:1023E000010306B323F00603134384F82230268446
:1023F0001DF0EFFD2146E06112481DF0A4FBE069ED
:10240000FFF7F4FB104C2B4610351868596822462C
:1024100003C20833AB421446F7D1084C08481DF0FC
:1024200098FC2046F8BD23F0060343F004032684FD
:1024300084F82230E6E70024F0E700BF288C002073
:102440007C090020208C0020308C002038B5054607
:102450004FF0FF320F484FF0FF331DF071FC95F83D
:10246000224014F001040FD00B4829461DF075FBE3
:1024700018B11DF0AEFDFFF7B9FB95F822306FF3F0
:10248000000385F82230012402481DF062FC20463A
:1024900038BD00BF7C090020208C00202DE9F043CE
:1024A00085B00023044617468DF80F300D460029ED
:1024B00058D00A8848F2FE039A4233D00B78FF2B9B
:1024C00004D14B7803F00F03022B2BD02946204672
:1024D0001DF033FF60B190F82480FCB100970DF13E
:1024E0000F034246294620461DF07BFC044610E0BF
:1024F0004FF08008F1E7304600970DF10F03424698
:1025000029461DF06EFC4036002818BF04464E4593
:10251000F1D3CCB1204605B0BDE8F083124EDFF810
:102520004C90F4E724B1012120461DF053FEDDE775
:10253000FFF758FC01211DF04DFE04460028E9D1AB
:10254000094D0A4EB54204D305B0BDE8F04300F092
:1025500081BB012128461DF03DFE04460028D9D14B
:102560004035EFE70C46D5E7C40A0020040B0020F5
:102570002DE9F04186B01E460023019301AB0546CC
:10258000884617461DF0E7FB044620B96FF015009A
:1025900006B0BDE8F081BFF35B8F6369BFF35B8F6B
:1025A00004F11402002BF1D0BFF35B8F581E52E8E8
:1025B000001F994204D142E8000CBCF1000FF6D193
:1025C000BFF35B8FE7D1012B03DD002EE0D0346039
:1025D000DEE794F83D30B8F1020F6FF3410384F861
:1025E0003D3047D1002F45D02846019F1DF0AAFB62
:1025F0006B68002B3AD094F83D30DB0714D41E4EA4
:102600001E484FF0FF334FF0FF321DF099FB04F1ED
:10261000180130461DF0A1FA336813B9184822F0AA
:10262000ABFC16481DF095FB0B2128461DF0F5FA72
:1026300098B912484FF0FF324FF0FF331DF080FB86
:10264000104804F12C011DF088FA18B1211D28460C
:102650001FF079FE09481DF07CFB012F06D1201DDB
:1026600002A91DF0A6FA28461DF01BFD05F1140075
:102670001DF06FFB00208BE7188C00207C090020E8
:1026800090140020088C00202DE9FF411DF0A1FCD2
:102690000023CDE9023307464FF0FF332F484FF0B8
:1026A000FF321DF04DFB2E4B1C68B4B12568DFF8DE
:1026B000B0804FF0FF36BCB1394620461EF04DFBCE
:1026C00068B9214640461DF048FA02A81DF03BFAC1
:1026D0002DB32B682C461D46EDE72546E7E78642DD
:1026E00028BF0646AC42F3D1731C10D04FF400440F
:1026F00040F2E73000214FF47A720023E6FB040138
:10270000FDF7FEFC02460B4616480BF0A5FC1348ED
:102710001DF01FFB029C24B904B0BDE8F0812B46DC
:10272000D8E7206A1DF00EFB94F82530206A6FF37D
:10273000410384F8253001A9FFF790FB00280BDB4B
:10274000206A94F82430019904F110021DF000FF72
:10275000206A14301DF0FDFA2468DCE77C090020B3
:10276000108C0020601400202DE9F84F1DF031FC82
:102770004FF0FF3380464FF0FF322D481DF0E0FA56
:102780002C4B1C68002C4ED054F8185905B1183D3C
:10279000DFF8A0A0DFF8A8904FF0FF360EE001EBC5
:1027A0008312944222D101EB831104311DF098FE73
:1027B00035B3AB6903B1183B2C461D4604F1180B29
:1027C000414658461EF0C9FA0746A0B95946504638
:1027D0001DF0C3F958463A4639461EF085FA1648A8
:1027E0004845E5D241680023A142DBE70133062BCF
:1027F000D5D14030F4E7864228BF0646A542D7D15E
:10280000731C10D04FF4004440F2E73000214FF425
:102810007A720023E6FB0401FDF772FC02460B46C8
:1028200006480BF019FCBDE8F84F01481DF091BABD
:102830007C090020188C0020C40A0020901400207D
:10284000040B0020F8B54FF0FF33054617460E483D
:102850004FF0FF320E461DF073FA0C4B1B680BB1A4
:102860001C6823B9BDE8F84007481DF072BA5B68E0
:102870003A463146284698471CB1226823461446FA
:10288000EFE72246FAE700BF7C0900202C890020F0
:10289000F0B585B00023CDE901330446ADF80C3026
:1028A0000D46002944D0254B1B685BB195F82B20C1
:1028B000082A01F12C013BD80DF106008DF8052006
:1028C0002EF03FFE092120466F691DF0A6F988B35E
:1028D0000D2120461DF0A1F938B94FF0FF324FF01D
:1028E000FF3304F128001DF02BFA20461DF072F989
:1028F00029464368204698470D21064620461DF08C
:102900008CF918B904F128001DF023FA002E02DA20
:1029100028461EF084FD1FB1314638461DF064F98B
:102920009DF8053023B1324601A92046FFF78AFF02
:1029300005B0F0BD6FF07206EAE700BF2C890020F9
:10294000064B984206D3064A904203D2C01A801121
:10295000013070474FF0FF30704700BFC40A0020BD
:10296000040B002070B50C46002184F829100546A0
:10297000A8B31DF052F990B3082128461DF04DF977
:1029800068B3012384F838302146284620F032F815
:102990001DF01FFB60632846FFF7D2FF4FF0FF33A7
:1029A0004FF0FF3284F83C000D481DF0C9F904F1E6
:1029B0002C010C481DF0D1F80A481DF0C4F8084855
:1029C0001DF0C7F9084822F028FC084307D1BDE8EC
:1029D0007040064840F6CD4200230BF03DBB70BD71
:1029E0007C090020088C00204014002030140020B6
:1029F0002DE9F0410D460646F8B1F1B10846FDF764
:102A0000ABFB08281CD8114FDFF84480441C474515
:102A100008D32246294606F108002EF092FD002038
:102A2000BDE8F081B74206D02246294607F10800EA
:102A30002EF04CFC38B14037E9E76FF01500EFE7B6
:102A40006FF05A00ECE76FF07700E9E7C40A002066
:102A5000040B00202DE9F0434648474C474DDFF872
:102A60007081474E85B04FF0FF324FF0FF331DF0BD
:102A700067F91EF0FBFE2746AC423BD3414B424A6E
:102A8000DB1B9B09AA4288BF00236BB33F49404828
:102A9000404D22F065FA404B404941480024C3E9CB
:102AA000004422F05DFA3F4B3F494048C3E90044EF
:102AB00022F056FA3E493F4822F052FA402385F868
:102AC000C532012385F8C632284647F23053C5F88F
:102AD000B0321DF0F0FC3849C5F8B402374822F096
:102AE0003FFA374BC3E90044224805B0BDE8F04344
:102AF0001DF02FB90022C4E90222227420461DF0E5
:102B00006EF8D0F80890B9F1000F18D0D9F800305D
:102B1000ABB1072120461DF0B6F804F1140022F0F5
:102B2000A6F804F1280022F0A2F8D9F800302046D7
:102B3000984794F83C3023F0030384F83C30237A20
:102B40008BB920461DF046F880450ED11D4A13680A
:102B5000591C11601C4A092101A81AF03FFE01A965
:102B60002046FFF745FF403486E733685A1C326041
:102B7000164AF0E77C090020C40A0020040B00205C
:102B80001C890020430B0020850A00202D1D000019
:102B90003014002034890020088C0020511F0000D0
:102BA00000140020008C00206927000090140020F1
:102BB00089260000601400207D1C0000C014002045
:102BC000208C0020208900204D250300562503007D
:102BD000300B002038B5074C074DAC4200D338BD50
:102BE000032120461DF019F810B920461EF022F8E6
:102BF0004034F2E7C40A0020040B00202DE9F04124
:102C00001546064610B30229DCB202D0082918BFC7
:102C1000062114B90020BDE8F081771828464FF04E
:102C20003A0816F8011B012341221EF0C3F8033CA9
:102C3000BE420346E4B200F8018B01D0002CF0D173
:102C40008542E7D000221A702846E4E70048E2E710
:102C50007925030000487047841B030002484FF0A9
:102C6000FF32012122F0C2B8508C002001460148F9
:102C70001EF09EBB940A002073B5054616461C46FE
:102C800022F08DF908B10026344601A932462346C8
:102C900028460AF0A9FD0146A8B9019C5022204609
:102CA0002EF077FCFF2284F83F20084A656001235C
:102CB0009542E36108BF84F84C3020461EF002FCC8
:102CC000204602B070BD0024FAE700BF30090020A2
:102CD00002460B460148FFF7CFBF00BF3009002076
:102CE0002DE9F743DDE90A89044615461E460F46DD
:102CF00029B923B990F8373013F0700F46D022F07D
:102D00004EF918B14FF000084FF0000920461EF0B0
:102D1000ADFB94F83730002842D113F0700FC3F3A5
:102D200002123FD0022A0CBF28220022112E31D1DC
:102D30000832B918C3F30212A36913B11B6803B1B7
:102D40005B8B022A30D1B3F5A06F38BF4FF4A0637C
:102D50001B1A994228BF19466668164B164F17482A
:102D6000CDE900892A46BE4208BF18461EF032FA55
:102D70000146D8B120461EF0ABFB3DB1A068294604
:102D80000C301CF07CFB20461EF09CFB002003B0A6
:102D9000BDE8F083012E01D03A2ECAD10432C8E733
:102DA0000022C6E70246C4E70B46D1E76FF00B00EE
:102DB000EDE700BF940A002030090020640A0020DB
:102DC0002DE9F743DDE90A89044616460D4639B96F
:102DD00032B990F8373013F0700FC3F3021026D0D9
:102DE00022F0DDF818B14FF000084FF00009A0699B
:102DF00050B93346002229462046CDE90A8903B05E
:102E0000BDE8F043FFF76CBF62680B4B9A42F0D10C
:102E100003687BB15B681F69002FEAD0CDE90089A8
:102E200033462A462146B84710F1860FE1D003B059
:102E3000BDE8F0831B69FFDE3009002030B585B0A6
:102E4000DDE908450093CDE9024513460A460146EF
:102E500002481EF04EFB05B030BD00BF3009002017
:102E600030B585B0DDE908450093CDE9024513464C
:102E70000A46014602481EF03CFB05B030BD00BFCB
:102E80001009002008B5044BC0EB001003EB001044
:102E900021F088FF002008BDF01400200828024B14
:102EA00028BF0020185C70478325030010B588B048
:102EB0000F4C204621F069FF4FF0FF324FF0FF33F7
:102EC000CDE906230023CDE90323CDE901330949E8
:102ED000094B00944FF4C06204F120000BF00EF98E
:102EE00020B108B0BDE810400BF0A8BB08B010BD81
:102EF000F014002000C800204D1802002DE9F34115
:102F00000746884616464FF0FF3315484FF0FF320C
:102F10000AF068FD134B1C686FF0010534B91048C6
:102F20000AF0D8FD284602B0BDE8F081227C337853
:102F30009A4213D1637C72789A4200D073B9A36825
:102F400013B1BA69934209D1E368009365683346C7
:102F5000424639462046A847051EE0DB2468DDE7E7
:102F600090090020688C0020F8B50F4616461D46D3
:102F70000446D0B1CBB1142200212EF00AFB6560CB
:102F8000277466744FF0FF324FF0FF3308480AF0A1
:102F900029FD084B1A6822605A681C6002B95C60FF
:102FA00003480AF097FD0020F8BD6FF01500FBE71D
:102FB00090090020688C002002460B4601480AF068
:102FC00011BD00BF6809002001480AF083BD00BFA1
:102FD000680900202DE9F04F89B0CDE9052390F86C
:102FE0003730C3F302130393013B012B05460E4612
:102FF00000F2A380112A134601BF069B1B681A88A2
:10300000049208BFB3F802A0039B1CBF4FF0000A54
:10301000CDF810A0022B3AD1086800210830FFF744
:1030200033F834680746102204F1180104F108004F
:103030002EF04CF900B117B1049B9A457DD094F85D
:103040001880A8F1FF01D1F1000848EB01084FF00A
:10305000FF304FF0FF31FFF7AFFF554B4FF0000B44
:103060001C684FF0FF330793D9469CB9B9F1000FA4
:1030700076D1FFF7A9FFB8F1000F00F08C80BBF10B
:10308000000F5AD028461EF0CAF9002056E04FF033
:103090000008DCE7A36B002B34D194F84330002BFD
:1030A0003DD1B4F84030059A934236D194F844703B
:1030B0003B0703D5E388049A93422ED1F80602D544
:1030C000E38B534529D1B90706D50123221D31468B
:1030D00028461EF0E7FB00B37A0707D5002304F16A
:1030E0001C02314628461EF0DDFBB0B1079B07F0FD
:1030F0007807BB4211DAB8F1000F14D13BB2079345
:10310000A1460AE0B3F876201205C6D5AF6993F957
:103110007800FEF7F9FD8742BFD02468A5E7039A3F
:103120009A42BED0F9E740F6CD42002328461EF071
:103130002CFB834628B9FFF747FF022009B0BDE802
:10314000F08FE36B00930146069B676B3246204687
:10315000B847022802D158461EF061F9C346DCE7A1
:10316000D9F83440D9F83C70FFF72EFFB8F1000FC2
:103170000FD0BBF1000F85D1002CDED0069B00974D
:10318000324629464846A047831E584258414000CF
:10319000D4E7002CF2D195F83730C3F30213022B99
:1031A000CBD10023042201212846FDF72DF9C4E7E5
:1031B000708C00200B4A002310B5C2E900330A4A84
:1031C0001846114614460133042B086002F14802E8
:1031D00002D008461146F6E7044B054AC3E900242D
:1031E00010BD00BF708C0020808C0020788C0020E7
:1031F000588D0020024B034800228021FFF7B4BE07
:1032000069190200A08D00202DE9F74F4378FF2BAC
:1032100080468946164650D1294F4FF0FF3400258D
:10322000BA4602F1020B621CBB7A09D14BB9072DD9
:1032300005F1010207F10B0722D0BB7A2C46154697
:10324000A3B172780193B91C58462EF03FF8019B48
:1032500060B90B2202FB05A20133937288F801507A
:10326000C8F80490002003B0BDE8F08F0135082DA8
:1032700007F10B07D7D1631C03D16FF00100F2E710
:1032800007240B2060430AEB0003B11C9A7A013239
:103290009A7288F801407278082A04D802305044A3
:1032A0005A702EF04EF90B235C430AEB040372783C
:1032B0005A7033780AF80430D2E76FF07700D2E71B
:1032C000A6B7002030B54178FF29034616D00D4837
:1032D0000B2202FB01018C7A013C8C725C7802FBB0
:1032E0000401897A29B9022512FB0452141881506D
:1032F0006160FF2200205A70586030BD6FF0770087
:10330000FBE700BFA6B7002000EB800300EB430003
:10331000014B1844704700BFA6B700202DE9F041CB
:1033200014461D46064630B187681EF079FFC7E98E
:103330000C01B3689C63194821F06FFF4FF47A7257
:10334000A0FB020302FB013147F6FF73C01841F1F5
:103350000001C00B50EA414003D0844275F10003E4
:1033600019DA291E2246BCBF00221146C90341EAD0
:10337000524140F2E733D203D01841F100014FF43B
:103380007A720023FCF7BCFEBDE8F04102460B4612
:1033900003480AF061BEBDE8F08100BF201600209E
:1033A00010160020F0B5836893F848208A420FD0A9
:1033B000052A0DD083F84810816891F84830022B17
:1033C00006D1114A13689C1C03D0581C10600B6571
:1033D000F0BD00230D4F136019461C46682606FBFE
:1033E00004F57D5D4DB185683DB195F848C0BCF1EF
:1033F000020F02BF2965012301310134082CEED1EF
:10340000002BE5D01160E3E7F08D002034000020B0
:103410002DE9FF41064628480D46174698461EF0FE
:103420006DFB0446002842D0FF2346606A4686684A
:10343000437005F1100E1346286869689446ACE89D
:103440000300083575456246F6D106F11C0504AA4D
:103450001E4603CE964228606960334605F1080592
:10346000F6D141462046FFF79DFFA36893F84D2013
:1034700067F3000283F84D20A36800200021C3E910
:103480001001A06890F84D309B0708D421F07DFC16
:10349000A26892F84D3043F0020382F84D30A368E1
:1034A00000200021C3E90C01A36800229A63204692
:1034B00004B0BDE8F08100BF280000207FB5074AB6
:1034C000417818230230FFF799FB054A034618217B
:1034D00068461AF083F907B05DF804FBFEB70020D8
:1034E000F22603002DE9F0410E4C074688460026DF
:1034F0002546237853B117B163689F4206D1A0686F
:10350000102241461C302DF0E1FE38B10136082E64
:1035100004F16804EDD10020BDE8F081682303FBCD
:103520000650F9E73400002003484FF0FF324FF017
:10353000FF330AF057BA00BFA409002001480AF07F
:10354000C9BA00BFA40900202DE9F04104460D4688
:1035500016461F46FFF7C6FF002840D13B463246BD
:1035600029462046FFF754FFC8BB1E4A4FF0FF3CD8
:103570006346114692F800E0BEF1000F18D0D2F871
:1035800008E0BEF1000F13D09EF84D8018F0010F37
:103590000ED19EF84880B8F1020F09D1B3F1FF3F78
:1035A000DEF850E002D1F446034601E0F445FAD8D3
:1035B0000130082802F16802DCD15A1C07D06822C9
:1035C00002FB0313996858681C311EF0BCFE3B4691
:1035D000324629462046BDE8F041FFF719BFBDE855
:1035E000F08100BF340000202DE9F04F89B00C4677
:1035F000164600211422CDE90212DDF848909DF80C
:103600004CA080469B46EBB940F2FF230493ADF8F3
:1036100014B0ADF816B0ADF818B04FF48073ADF833
:103620001A30FF238DF81C3099F80D3099F80F20CF
:103630008DF81D3099F80E3043EA0223ADF81E30A4
:103640000DF1100B40461EF0C3FD4778BAF1000F94
:103650004FD0FFF7FFFA0027064640F6CD42002381
:10366000CDE9002307F114013A2302224046FFF777
:10367000E5FB0546002800F09B80FF235A4680F8B2
:10368000393031461EF06EFA024600284BD18721B0
:1036900028461EF050F90646002844D102A92846C3
:1036A0001EF0B1F800283ED0067046708670C670D5
:1036B000494604301EF09FFD02A928461EF0C1F8BD
:1036C000834680BBBAF1000F22D028461DF0FAFED7
:1036D0003A2128461EF0A9FAFFF726FF00231A46D2
:1036E00049464046FFF730FF064610BBFFF726FF6E
:1036F00019E026B9494640461CF0D9FE0646304638
:103700001EF056FD00285BD1093707F0F807A4E743
:1037100040461EF05DFD012301463A4628461EF054
:103720008DFD0028D1D1002C3CD020461DF077FE25
:1037300038E084B383681B6880682146FBB921F0B8
:1037400031FB20461DF04BFEB76804461EF068FDB5
:10375000C7E910011E4821F060FD084305D11D484E
:103760004FF4004200230AF077FC28461EF089FD42
:1037700000280ADAA4B1B0681EF0BCFD10E021F008
:1037800026FB10B120461DF02AFEFFF7D7FE584653
:1037900009B0BDE8F08F28461EF073FD0028F4DA6A
:1037A000FFF7CCFE28461DF03AFE6FF0680BEEE7FF
:1037B00014B96FF00B0BEAE720461DF030FEF8E776
:1037C00014B96FF0150BE2E720461DF028FEF8E76C
:1037D000F0150020E01500202DE9F04F0C46A3B0B5
:1037E000002198460C23CDE9081306AB0A93A5687F
:1037F000D2F8009002230B930A4655B9A0690B2119
:1038000097B21EF001FD40B16FF0040023B0BDE897
:10381000F08F2B8A6D681A44EFE708A920461DF047
:10382000F2FF06460028EFD009F108010EA81EF0AD
:10383000E2FC392F09D999F80730FF2B05D1BDF8E3
:10384000382048F2FE039A4203D098F80130002B4A
:10385000DAD1099920461EF042FDD6F8048031786D
:103860007788D6F8089098FA88F811B1A0691CF00A
:1038700009FE924B08F1FF329A4213D2A3695B68AA
:103880002BB1D3F8B42290450CD0C3F8B082A36911
:10389000D3F80480B8F1000F04D040461CF00BFEB2
:1038A000C8F8B402B9F1000F06D0A36923B15B6870
:1038B00013B1B268C3F8B8220C2384F83E300AA9C9
:1038C00020461DF0A0FF4FF0080B0646E6B93DB9B3
:1038D00000952A46A06901230EA91EF02EFF054679
:1038E0007EBAA0690EA9B6B2FEF71AFD002800F054
:1038F0007B81002F40F05881FEF7A8FDFFF714FEF2
:10390000002D00F0578168E10B9920461EF0E7FC7E
:1039100096F80080B8F1050F69D071780FD8B8F12A
:10392000010F4BD0B8F1030F7ED06FF001030BFBFA
:10393000013120461DF015FE002852D064E7B8F191
:10394000180FF2D10139CEB2022E3FF65DAF12ABA5
:1039500016931022062300211AA817932DF019FEA2
:1039600016A920461DF04FFF804600283FF44CAFBB
:10397000179920461EF0B3FC0028FFF645AFF20071
:10398000D8F8023098F80090059302F0F8021AA9CE
:10399000204698F801801DF0FAFD0028C8F3C10800
:1039A000FFF632AF059BA069002B40F0F4801AA906
:1039B00000F0B8FAA8B100F057FB12E01AAA2046AE
:1039C0001EF06BFC00283FF41FAF02230093A06998
:1039D00043461AAA0EA91EF0B0FE054600283FF481
:1039E00013AF0AA920461DF00EFF06466EE702211E
:1039F00020461DF0B6FD00287FF406AF07A920463B
:103A00001DF0CEFD00287FF4FFAE079AA2F5A0635B
:103A1000B3F57B4FBFF4F8AEA369002BE1D01B6870
:103A2000002BDED05A83DCE704297FF4EDAE1AAB1D
:103A30000C930CA91E2320460D931DF0E4FE0646B0
:103A400000283FF4E1AE0D9920461EF048FCD6F860
:103A50000280D6F8063098FA88F21BBA9A42C0D390
:103A6000F28948F2FE039A42BBD096F90130002B4E
:103A70002DDA06F10E09494616A81EF0BCFB327875
:103A8000A06916A91CF095FC40B9D6F80230F3B134
:103A90003278A06949461CF0C9FBC0B1D6F80230A3
:103AA00073B1013390F825304CD06FF3000380F8E8
:103AB0002530D6F80210FEF7E7FB08E080EE36006E
:103AC00090F8242000F11001A0691CF068FD7378C3
:103AD000580686D5B8F1000F83D03378402B80D1BB
:103AE0000DF15808D4F818901022002140462DF00E
:103AF00050FD06F10E0112A81EF07DFB48461EF097
:103B000067FB4FF0000A53465246CDE90180CDF8DD
:103B100000A012A948461EF0E6FA514640461CF0A5
:103B200093FAD6F80230824660B390F82810012943
:103B300028D1591C0BD190F83D3043F001038AF88D
:103B40003D304EE743F0010380F82530BFE7B3F581
:103B5000E15F09D9D6F802105046FEF7D5FA9AF877
:103B60003D306FF30003EAE705931EF059FB014671
:103B70000AF118001DF0D7F8059B9842EAD34FF4DC
:103B8000E151E9E75A1C08BF00230122414648469B
:103B90001CF0D4FD25E71BBACDE900384A460EAB30
:103BA0001AA900F01FFB1CE75DB931461CF033FC7D
:103BB000FFF7BAFCFFF7C2FCA069FEF745FA002048
:103BC00024E6AA6892F84D3043F0010382F84D30A4
:103BD00031461CF020FCFFF7A7FCAB681B68A86807
:103BE00043B91EF087FBE5E7A06932460EA9FEF750
:103BF000E3FB83E64FF0FF324FF0FF3309F0BAFFEB
:103C000006461EF03EFB0028E7DA30461DF007FCB2
:103C1000E3E700BF2DE9F84F1EF002FB0646884699
:103C2000FFF782FC364D08274FF0000A4FF0000BDB
:103C30002B785BB3AA684AB3D2E9103153EA01008A
:103C400024D013F57A7341F100019C1B61EB080944
:103C5000012C79F1000321DB2A4821F0DEFA084328
:103C600014D1E30340F2E7324FEAC931981841EA30
:103C700054414FF47A724FF0000341F10001FCF718
:103C80003FFA02460B4620480AF0E6F9013F05F1EB
:103C90006805CDD1BDE8F84FFFF750BCC2E910ABC5
:103CA000AB681B68002BF1D0AB681B68002BEDD014
:103CB000A8684FF0FF324FF0FF3309F05BFF044676
:103CC0001DF0ADFB20461DF0AAFBAB681B681BB9BD
:103CD00028461DF006FFD9E7A8684FF0FF324FF0E5
:103CE000FF3309F047FF04461EF091FE0228CDD1B4
:103CF00020461DF094FB20461DF091FBD4E700BF49
:103D000034000020F0150020E01500202DE9F34DCF
:103D10001EF086FA06468846FFF706FC364D002759
:103D20004FF0000A4FF0000B2B78002B35D0AC6819
:103D30009CB3D4E90C2352EA03012ED0A16B8A185C
:103D400043EBE173921B63EB0803012A73F100015B
:103D500003DB0020FFF7E2FA1FE094F84830C4E9E3
:103D60000CAB042B19D8DFE803F0032226292F001F
:103D700094F84C30022B04F11C0103D968681EF042
:103D8000E2FA0AE0013384F84C300023CDE9001355
:103D90001A4668681946FFF727FC0137082F05F116
:103DA0006805C1D102B0BDE8F04DFFF7C7BB0223E3
:103DB00084F84830F1E704F11C01DFE7042384F8BC
:103DC0004830002384F84C3094F84C20022A04F147
:103DD0001C0301D91946D1E7013284F84C20002296
:103DE000CDE9003211466868FFF7FEFB4FF47A72A6
:103DF00000232846AEE700BF3400002008B50022AB
:103E00000D4B0E488721FFF7AFF80D4B0D480022F0
:103E10008821FFF7A9F80C490C4821F0A1F80C4BB8
:103E20000C4886210022FFF79FF8BDE808400A49A8
:103E30000A4821F095B800BFD3270200DC8D00208E
:103E40008D240200C88D0020153C0000E0150020E4
:103E5000D9370000B48D00200D3D00001016002061
:103E6000024B034800228221FFF77EB8CD2D0200CD
:103E7000F48D002038B103682BB15868034BC01A89
:103E800018BF012070470120704700BF300B002091
:103E90002DE9FF41064614480C4690461DF02EFEC3
:103EA0000546E8B1234646606C46866803F1100C6F
:103EB000274618685968224603C2083363451446EA
:103EC000F7D106F1200304AA3C4603CC94421860C3
:103ED0005960274603F10803F6D1AB6883F83080B8
:103EE000284604B0BDE8F0817403002038B50546CB
:103EF000FFF71AFB0A4B00221C46197811B199688A
:103F0000A94209D00132082A03F14403F5D1002463
:103F1000FFF714FB204638BD442303FB0244F7E7B8
:103F2000800300202DE9F74F4FF0000B2A4D81460A
:103F30008A465E46FFF7F8FA5B462A785C1C22B98F
:103F4000082C234637D04435F7E7B9F1000F02D0EB
:103F50006B684B45F4D1D5F8088098F830705F4510
:103F6000EED3802FECD808F12001FA085046CDE9B5
:103F700000122DF0ABF9DDE900120028E0D1784203
:103F800010F007000DD08B5C1AF802C0C0F10801D8
:103F90008CEA0302FF238B40DB43DBB283401A42EF
:103FA000CED1082C234605D03A0603D44435BB466F
:103FB0004646C2E746464EB1084831461FF028F84B
:103FC000036833604368066003B94660FFF7B6FADA
:103FD000304603B0BDE8F08F80030020108E002033
:103FE00070B50E460446002839D0FFF79DFA731CC1
:103FF00004F1100594F831300BD143F00403184854
:1040000084F8313029461FF003F8BDE87040FFF70F
:1040100095BA6FF3820384F8313021F01EF94FF422
:104020007A73A0FB030203FB0122C00B40EA424269
:10403000314628461CF058FE094829461EF0E8FF84
:104040000023236143683BB9C0E9005500220023E7
:1040500004480AF001F8D8E71D604560F6E770BD36
:10406000088E00204016002038B5044680B3FFF7C4
:104070005BFA94F831305B0709D4174804F110015A
:104080001EF0C6FF036813B9144820F075FF1448EA
:1040900021461EF0BDFF2046FFF728FF054620B948
:1040A000FFF74CFA6FF0010038BD646834B9284658
:1040B0001DF017FDFFF742FA2046F5E7606828B1CA
:1040C0001DF00FFDA4F110001DF00BFD2468EDE7BD
:1040D0006FF01500E8E700BF088E002040160020B2
:1040E000108E00202DE9F84321F0B7F804460F4662
:1040F000FFF71AFA234B1E68002E3ED0356805B133
:10410000103D4FF47A72A4FB024302FB0731E40B2B
:10411000DFF8708044EA4144103E4FF0FF3701E081
:104120002E461D4606F11009214648461CF015FE94
:1041300060B9404649461EF06BFF3046FFF794FFDA
:1041400045B12B69002BEBD0103BE9E7874228BF34
:104150000746F5E77B1C10D04FF4004440F2E730EF
:1041600029464FF47A720023E7FB0401FBF7C8FFEE
:1041700002460B46044809F06FFFBDE8F843FFF71D
:10418000DDB900BF088E0020401600202DE9F04167
:1041900004460D46FFF7C8F9294620461EF0EDF803
:1041A0000F4D0026074605F508783446A86840B14B
:1041B000436833B15A68BA420ED1FFF755FF68B968
:1041C000013444354545F1D1FFF7B8F90CB906EA99
:1041D000E6742046BDE8F0811B68EAE70646F0E792
:1041E000800300202DE9F047DDF820809DF8247041
:1041F000894692461E460546FEF72CFD10220146D2
:1042000048462DF063F8044648B1FFF78DF9314672
:1042100028461EF0B2F828B90024FFF78FF920468F
:10422000BDE8F0874078FF2801D0FFF76DF84946D8
:104230002846FFF777FE044630B31EF004FF014620
:1042400078B1102230462DF041F850B94146204651
:10425000FFF7C6FE94F8313067F3010384F831307C
:10426000DBE794F83130022F03F00303D4D0032F9F
:10427000D2D801337A1C03F0030302F00302934205
:10428000CAD82046FFF7F0FE524649462846FFF7B7
:10429000FFFD044670B9234841681EF0B9FE084688
:1042A000FFF7E2FE524649462846FFF7F1FD044675
:1042B0000028B1D01C48428808231032017869BB1D
:1042C00000F110038360FF2343701DF013FC0028EE
:1042D000A2D0A468D0F8089094F83130E56067F374
:1042E000010384F8313041462046FFF779FE0D4B3B
:1042F0001A6822605A681C6002B95C602846314620
:104300001EF03BF8054608B11DF0F4FB0023C9F888
:104310000450C9F80030C4E901997EE7013B10441C
:10432000CCD179E7108E0020A00500200149024879
:1043300020F016BEE540000040160020F0B585B024
:104340000823039390F837301E4A1F4FCDF808D04A
:10435000C3F302130E4602A90446022B08BF1746F8
:104360001DF051FA054648B3A268002312BB618FC5
:1043700094F836200A449B1A5BBAAB80A069394690
:104380001CF0D8F900B97EB1112120461CF0AEFD19
:104390004FF6FF73002818BF0346EB8094F83830BF
:1043A00043F0080384F8383002A920461DF049FA8A
:1043B00005B0F0BD118A52680B44D7E76FF0680072
:1043C000F6E700BF0004400001004000F8B590F897
:1043D00037301B4A1B4EC3F3021304460F46022B11
:1043E00008BF16461DF00FFA054610B900252846ED
:1043F000F8BD394620461DF024FA03460028F5D1C1
:10440000AA88A16852BA92B2B1B994F83610608FF6
:1044100001445B1A9A42E9D1A06931461CF08CF93B
:104420000028E4D0EB88002BE0D0112120461CF0BE
:104430005DFD0028DBD0D9E7088A49680344E3E73B
:10444000000440000100400070B50D460649411AC5
:1044500004464911054840221EF0F0FE2B46014655
:104460002046BDE8704018472C8E002060160300DF
:1044700037B50C460A490B4A411A402300934911AB
:104480000546234608481EF005FF011E05DA2846AA
:10449000234603B0BDE83040184703B030BD00BF2D
:1044A0002C8E0020FF32020060160300002270B53F
:1044B0000121044610461AF07DFF0F4805F020FF49
:1044C0000E4B984215D105F02BFF26690C4930465A
:1044D0001AF083FE00280BDB0125B5642469084926
:1044E00004F120001AF079FE002801DB6565002048
:1044F00070BD6FF00400FBE73D4600000000AD0B0F
:10450000BC1B03007FB500220123CDE9022304ABCD
:10451000CDE90433094ACDF800D06B46CDF804D07C
:104520001EF0E6FE002805DB4FF4804200236846BB
:1045300009F08CFB07B05DF804FB00BF17330200E5
:1045400010B5EFF31184202383F31288BFF36F8F2C
:10455000074A136823F00201DB07116002D401202F
:104560001FF083FD84F31188BFF36F8F10BD00BF70
:10457000848E002030B4104B0C2202FB0033014625
:104580000020D3E910521864EFF31180202484F343
:104590001288BFF36F8F9C6C04F0C00444F00204D7
:1045A0009C6480F31188BFF36F8F1DB12B460348C5
:1045B00030BC184730BC70472C8E002060160300BA
:1045C00010B4EFF31182202383F31288BFF36F8FAF
:1045D0001848016841F002040460C80708D482F357
:1045E0001188BFF36F8F01205DF8044B05F0AABE60
:1045F0004FF08041D1F80C04D1F80C14C907EED566
:10460000EFF3118083F31288BFF36F8F0A498B6C2D
:1046100003F0C00343F002038B6480F31188BFF3FF
:104620006F8F82F31188BFF36F8F00205DF8044B0A
:10463000FFF7A0BF848E00202C8E002010B101282F
:1046400004D07047034B9B6C5B0701D1FFF792BF0F
:10465000704700BF2C8E0020024BC0B203EB40100D
:10466000704700BF2C8E00202DE9F0413849BFF380
:104670005B8F0746012251E8003F41E800200028F7
:10468000F9D1BFF35B8F33B9324933484B60CB600C
:104690008A601AF0B5FD7B1E012B2BD8012F07D1A4
:1046A0004FF08043D3F81C3403F00303012B21D0D7
:1046B00020F075FC0546F8B9284B1B78E3B14FF0A4
:1046C00080430222C3F808230646DFF894804FF0A7
:1046D0008044D4F81824D4F81834D20315D503F044
:1046E0000303012B01D0012F0FD155B386F311889D
:1046F000BFF36F8FBDE8F081EFF31186202383F3C2
:104700001288BFF36F8F0125DFE7ADB130461AF095
:104710007CFED4F81835002BDBD1D4F80421002A14
:10472000D7D0C4F80431D4F804310123C4F81835C3
:10473000C8F88031A360CCE70021212020F0E5FCFF
:10474000E7E74FF080430222C3F80423D2E700BF1B
:10475000288E0020188E00204C8E0020ADC700202F
:1047600000E100E008B5074820F0CCF938B1064870
:10477000FDF708F80448FCF743F8002008BD6FF087
:104780001200FBE7E01603008D4700000A2838B549
:10479000074D044604D1AB680D215B682846984755
:1047A000AB6803485B68E1B29847204638BD00BF5C
:1047B000E0160300EFF31182202383F31288BFF386
:1047C0006F8F0A4BD3F8001161B10021D3F80805AF
:1047D000C3F80011D3F80031C0B282F31188BFF3DF
:1047E0006F8F70476FF00A00F7E700BF00D00040FE
:1047F000F0B5034610469C7893F803C0EFF311829E
:10480000202585F31288BFF36F8F1F7893F801E09E
:10481000E41B04EA0C04A04288BFA0B23E180CEAD4
:1048200006063D461E7082F31188BFF36F8F0A188B
:104830008A4216D177450CD1EFF31182202181F302
:104840001288BFF36F8F1978597082F31188BFF304
:104850006F8F1B79241AA34222BF064B01221A60D4
:10486000F0BD5E190135767901F8016B05EA0C059A
:10487000DEE700BF00D00040DB432DE9F04713F036
:1048800001050E46144604D02248FFF7B1FFBDE8EB
:10489000F0879AB3EFF31188202383F31288BFF3D4
:1048A0006F8F0D20FCF7ECFC07460D20FCF7D4FCC5
:1048B00088F31188BFF36F8FDFF85CA0DFF85C80AE
:1048C000CAF80051DAF800314FF400590123CAF850
:1048D00000302546C8F88091DAF8003183B1FFF73F
:1048E00069FF031EC8F88091F6DB013DADB2735538
:1048F000002DF1D117B10D20FCF7A0FC2046C6E732
:10490000EFF31180202383F31288BFF36F8F1AF027
:104910007CFDE1E7B88E002000D0004000E100E01F
:104920002DE9F041124F0D46144607F1450814B920
:104930002046BDE8F0814FF0FF334FF0FF3238469C
:1049400009F084F9224629464046FFF751FF064602
:10495000384609F041F93EB94FF0FF324FF0FF33CE
:10496000044809F073F9E6E7A41BA4B23544DEE776
:10497000888E0020A08E002038B5194C01221146E7
:10498000204620F033FA0122002104F1180020F023
:104990002DFA40F20743A4F848304FF070632363C8
:1049A0000C2384F8343000250E4B84F84550A4F8CD
:1049B0004650D3F8042522F00102C3F80425012152
:1049C000C3F80051D3F80021C3F804132A46196034
:1049D0000D201AF0EFFC0D20FCF730FC284638BD06
:1049E000888E002000D0004010B5FFF7E3FE0028BD
:1049F00020DB174B93F8322093F8314093F83310B3
:104A0000141B31EA0404C0B20DD193F8472093F887
:104A1000464093F84810141B31EA04040BD10D4BA7
:104A200001225A600EE09C180132114084F83500D2
:104A300083F8321010BD9C180132114084F84A00EE
:104A400083F847100448BDE8104009F0C5B800BF1E
:104A5000888E002000D00040A08E002000F174401D
:104A600000F5A6000A289ABF024B33F910006FF038
:104A70000F00704784200300024B0B60012313607A
:104A8000704700BF641C030000487047D81B030038
:104A90000268154BFF2A08BF4FF0FF32C3F82425E8
:104AA0004268FF2A08BF4FF0FF32C3F8282582680A
:104AB000FF2A08BF4FF0FF32C3F83025C268FF2A33
:104AC00008BF4FF0FF32C3F834250269FF2A08BF40
:104AD0004FF0FF32C3F838254269FF2A08BF4FF074
:104AE000FF32C3F83C25704700900240054B9942C5
:104AF00006D14FF0FF324FF0FF33183009F0A6B85F
:104B0000704700BF0000AD0B2DE9F3470F46054687
:104B100041681E469046002A79D0002B77D0042B9E
:104B200001D9B30773D117F0030470D1002F6EDBE6
:104B3000CA6ABB1993426AD828461EF077FC204601
:104B40001EF045FC044648B101201EF040FC2846FA
:104B50001EF052FC204602B0BDE8F087032E1ED89E
:104B600004213A460DEB01001FF012FB04460146FA
:104B70002869FFF7BBFF274B9C4235D1324641469F
:104B800001A82CF0DEFC04213A460DEB01001FF0D9
:104B9000FCFA044601462869FFF7A8FF24E008F064
:104BA0006043B3F1005F02D118F0030F2BD0DFF8A0
:104BB00064A0042EB14628BF4FF004094A4641467E
:104BC00001A82CF0BEFC3A46494601A81FF0DDFAC8
:104BD000044601462869FFF789FF544504D1B6EB26
:104BE0000906C8444F44E4D12046FFF737FF044686
:104BF00001201EF0ECFB064628461EF0FDFB002CB3
:104C000008BF3446A6E73A4631464046BFE76FF054
:104C100015049FE70000AD0B2DE9F04F824685B0EB
:104C200088461C461746002A00F08F80002B00F0B3
:104C300088800029C0F289804268D26ACB189342EA
:104C400000F28380C8F1000505F003051EF0EEFBBD
:104C5000A54228BF25467B4203F0030307F0030665
:104C600058BF5E42764206F00306A64228BF26469B
:104C7000631BA41B24F0030423F00309A145C8BF50
:104C8000A14603F0030BC8BFA3EB040BB9F1000F5F
:104C900018D0BB1908EB05024946184601931FF0CE
:104CA00077FA04460146DAF81000FFF71FFF284A9A
:104CB00094423DD1B54205D0019B4A461946781928
:104CC0002CF04DFCC5B1C5F10406A8EB0602042189
:104CD00002A81FF05DFA04460146DAF81000FFF75B
:104CE00005FF1B4B9C4223D106F108032A460DEB1E
:104CF000030138462CF025FCBBF1000F17D008212A
:104D000008EB05024A440DEB01001FF041FA04468E
:104D10000146DAF81000FFF7E9FE0D4B9C4207D17F
:104D200009EB05005A4602A938442CF00AFC084C4D
:104D300050461EF061FB204605B0BDE8F04FFFF77E
:104D40008DBE184605B0BDE8F08F6FF01500F9E78D
:104D50000000AD0B2DE9F047C1F30B03D0F804C000
:104D600007460E461546002A6BD0C2F30B0252EAE4
:104D7000030466D1002964DBDCF82C204B19934234
:104D80005FD81EF053FB2046D7F804801EF01FFBAF
:104D9000044600284FD1DFF8B490D8F82C30AB424D
:104DA00021D11FF0F8F9AA46044638692146FFF7D9
:104DB0009DFE4C452CD15644A5EB0A0500214FF42D
:104DC000A47020F0A2F91EF0E7FA041E30DB14F004
:104DD0000104F3D1002DE0D101201EF0F8FA002CDF
:104DE00008BF044627E0B5F5803F09D3B3B2A3B9A5
:104DF0003146012006F028FA4FF4803A0446D4E701
:104E0000B5F5805F09D2104938690F4CFFF76EFE87
:104E10002046FFF723FE0446DEE7C6F30B0000281A
:104E2000F1D1314606F010FA4FF4805A0446BCE73F
:104E300001201EF0CCFA38461EF0DEFA2046BDE80E
:104E4000F0876FF01504F9E70400AD0B0000AD0B1F
:104E50002DE9F04743685D6B90B007460AAA002130
:104E600028461EF063FC041E6FDB0A9B2A68197932
:104E7000186800F033FE041E67DB002201212920A0
:104E80001AF098FAD7F804803A695549404606F076
:104E90003DF9FFF7E3FD041E52DB524D0FCD0AAC86
:104EA0000FC495E8030000260DF1040984E803000F
:104EB0000196AB23C9E901668DF804304A4BD3F85B
:104EC0002425D2B20492D3F82825D2B20592D3F881
:104ED0003025D2B20692D3F83425D2B20792D3F855
:104EE0003825D2B20892D3F83C350AA8DBB2099330
:104EF000FFF7CEFD012006F07FF904AD01462846FC
:104F0000FFF7C6FD394B994223D1314648461EF082
:104F100012FA041E14DB23201FF0D8FD4FF0030A01
:104F20009F2331460AA8CDE90A66CDF81090CDF846
:104F300014A08DF828300C951EF0FDF9041E0BDA34
:104F400006F078F908B106F063F9204610B0BDE824
:104F5000F0876FF00404F3E75246494608F1300049
:104F60002CF0B4F90446002834D17A68537F023B10
:104F7000012B2DD9167F023E022E8CBF0026012662
:104F80001EF00AFA002828DBC2B2C0F38010864265
:104F9000D6D00023012182F040020AA8ADF80030EB
:104FA0000A938DF80020CDF810D005910C938DF860
:104FB00028100B951EF0BFF904460028C0D11EF042
:104FC000EBF9041E01DBE307F9D404EAE474B7E764
:104FD0000126D5E76FF01204B2E70446B0E700BF40
:104FE0002B33020060180300009002400000AD0B5C
:104FF000024B0B6001231360704700BFDC8E002062
:10500000004870476C1C030010B501221146064889
:10501000064C1FF0EBFE1FF0B4F820601FF0ADF857
:105020006060002010BD00BFE48E0020DC8E0020F8
:105030004FF08042D2F81015D2F8103501F01E0161
:1050400023F01F030B4343F00103C2F81035024B5A
:1050500000221A70704700BF16B800204FF080532E
:10506000D3F83031082B20D14FF08042D2F8101500
:10507000CB071AD5D2F8103501F01E0123F01F031B
:105080000B43C2F81035D2F808315BB1D2F81035B5
:1050900023F01F030B4343F00103C2F810356FF0F8
:1050A0008B007047024B01221A700020704700BF2E
:1050B00016B800202DE9F0410D4616461FF05DF8A8
:1050C0003146074628461EF0CEF978B3B5FBF7F314
:1050D00007FB135353BBB6FBF7F407FB14642CBB5D
:1050E000B7421DD84FF0FF324FF0FF331148DFF8C1
:1050F000488008F0ABFD1FF040F80746FFF7AEFF11
:10510000044680B9284605F097FD98F800300BB1A9
:10511000FFF78EFFF61B3D44F0D1064808F05CFD1A
:105120002046BDE8F0816FF08B04F6E76FF01504C0
:10513000F6E700BFE48E002016B800202DE9F84302
:105140000E463046194617461C461EF08CF988B3A9
:1051500046EA040515F003052CD1BCB11748DFF869
:1051600064904FF0FF324FF0FF3308F06FFD24F0F2
:105170000304AC4206EB05080BD1114AD2F8003407
:10518000DB07FBD500240D4808F026FD2046BDE8CE
:10519000F883FFF763FF50B97959404605F06CFD7D
:1051A00099F800300BB1FFF743FF0435E1E76FF0EA
:1051B0008B04E8E76FF01504E8E700BFE48E0020F9
:1051C00000E0014016B80020F0B516464268107B9A
:1051D00001F01F0444EA4014106987B0002872D01F
:1051E000B6F5001F02F1100506D1214628461EF033
:1051F000BCFF002007B0F0BD01A80027B6F5800F66
:105200000197476039D1B3F1007F14BF0523042310
:105210008DF804300023CDE904030393936823FA47
:1052200001F111F001010DF103073ED1B6F1A07FAC
:105230003BD104F01F03620903F5E07328D0012A73
:1052400047D1254A52F82330DB072ED43A4621466F
:10525000284605F061FB214B98421CD0029703AA17
:105260002146284605F018FA1D4B98422ED10122FE
:105270002146284605F0A8FBBBE7B3F1C06F05D077
:10528000B3F1007F14BF01230223C1E70323BFE76B
:105290004FF0A042D6E73946284605F08DFB104B6B
:1052A0009842DBD06FF00B00A4E73A46214628462F
:1052B00005F032FB0A4B9842D1D19DF803102846E5
:1052C00005F072FBCBE76FF0850093E76FF01500F8
:1052D00090E751F82330FFDE000300500400AD0BCF
:1052E0000000AD0B420970B5034602D0012A17D069
:1052F00070BD0D4E326951680029F9D003F01F03CB
:1053000001250C689D400029F2D08A682A4002D00D
:105310004B68304698472CB1236821461C46F2E77B
:10532000024EE7E72346F8E7A016030080160300C5
:1053300038B545682B69B3B11035284605F02AFB0E
:10534000044680B90146284605F000FB084B984208
:105350000BD108492246284605F0D8FA22460521F5
:1053600006201AF027F8002038BD6FF00400FBE794
:105370000000AD0BE55200002DE9F043466840F215
:105380000635D006337B87B002EA050554BFC2F369
:105390004010032001F01F07B5F5837F144647EA4C
:1053A00043178DF8030044D00FD8062D18D007D826
:1053B000B5B1022D3FD06FF0150007B0BDE8F08306
:1053C000B5F5807FF7D101250AE040F2022295422F
:1053D00033D0B5F5407F32D0B5F5007FEBD1022553
:1053E00022032ED5726801238B40C2F8083532693A
:1053F00092BB07F01F037F092BD0012F79D13F4AC1
:1054000002EB830284F48033D2F80017C3F3004325
:10541000C4F3404444EA430421F4E16144EA8004D3
:1054200021F0070144EA05230B43C2F800370020AE
:10543000C3E70725D4E70425D2E70525D0E70325F0
:10544000CEE7630341BF012372688B40C2F80C357D
:10545000CDE74FF0A042D3E710360DF102023946F6
:10546000304605F059FA14F4403F80460CD13946D5
:1054700030461EF078FE224B9845D8D19DF8021098
:10548000304605F091FAD2E701AB4FF0000903AACC
:1054900039463046CDE90439CDE90199CDF80C9073
:1054A00005F0FAF8164B984285D114F4003315D064
:1054B0009DF803308DF80E3084F48034C4F300443A
:1054C0004B4603AA394630468DF80C508DF80D40F6
:1054D00005F09EF90A4B9842CDD06CE7CDE9043334
:1054E00003AA0DF1030339463046039305F0D4F8BF
:1054F000F0E703F5E07352F82330FFDE00030050BD
:105500000000AD0B014BB3F828087047800B00205A
:10551000024B002083F82C18704700BF800B00203E
:1055200038B50B4DD5F8204864B94FF47A7048432C
:10553000C5F820281EF0BFFA38B9C5F820086FF06A
:105540000F0038BD6FF07700FBE72046F9E700BF9A
:10555000800B002008B5064B93F92C081EF089FA41
:105560001EF09CFA00280CBF6FF00400002008BD5C
:10557000800B002021B1012906D06FF00100704797
:105580000123136000207047004BFAE7E41C03007E
:105590002DE9F041144686B00C290ED8DFE801F061
:1055A00007193034380D0D0D0D0D0D3DA200137887
:1055B00043B1507820B1012802D06FF0150005E00A
:1055C0001EF096FA20781EF0A4FA002006B0BDE87E
:1055D000F08153791179106833B11EF09CFA0028DC
:1055E000F3D16FF00B00F1E730B11EF09DFA002807
:1055F000EBD16FF00100E9E708461EF098FAE4E706
:1056000010781EF073FAE0E710781EF06BFADCE712
:105610003B4B1268C3F82428D7E7937A43B10121A2
:1056200000201EF074FA012108461EF070FACCE743
:10563000B2F808804FF6FF73984535D052689AB398
:1056400004A9ADF8088002F108030F4613F8010D14
:1056500001F8010B9A42F9D1266816B135786B062C
:105660000ED14FF6FE73984504D00122002102A806
:105670001EF04BFA0122114638461EF046FAA4E706
:105680007278204B02F07F02520019889B78ADF8A7
:105690000C1052EAD5128DF80E3008D1032203A95E
:1056A000B01C2BF013FE20B16FF085008EE71A2A94
:1056B000FAD14FF6FE73984509D0012205F07F0319
:1056C000009202333246002102A81EF013FA22682B
:1056D0001378012103F07F030091023338461EF056
:1056E00009FA72E710781EF0FFF92378044A82F86D
:1056F0002D38002B7FF469AF1EF0C8F965E700BFB5
:10570000800B0020ED250300034B186810B10068E2
:1057100000B10068704700BF800B002070B50546DF
:1057200088B04668046904F5A9601FF02EFB0122C9
:10573000002104F5ED601FF059FB0122002104F265
:105740004C701FF053FB00F065FE1EF0F3F982B2BF
:10575000D301110101F4016103F4807312020B43C0
:1057600002F48062134343F49553144A43F00F0349
:10577000A2F82838012384F82D3833682846984742
:1057800004F5906600220023CDE9062300256FF082
:105790000D03CDE90335CDE90155094B00944FF4D4
:1057A000487204F18001304608F0A8FC05493046F3
:1057B0001FF0FBFB284608B070BD00BF800B002027
:1057C000C1350200F12503002DE9FF4715461A7C7B
:1057D00004697D2A0E468046D9681F4600F2A080E3
:1057E000931C84F8803704F281702BF0AAFE04F534
:1057F000ED69484608F050FA012E00F2948095F8C1
:105800004B3006F00106C3F340028DF80A60C3F383
:105810008003484E8DF8093001234FF0000A8DF8BF
:105820000B3002A996F82C38ADF80DA004F5F06005
:105830008DF808208DF80C3000F018FE58B3D6F81B
:1058400024381BB13A465146404698474FF0FF3244
:105850004FF0FF33484608F0F9F994F82A2895F8F4
:105860004B3062F3410385F84B3094F82B28DBB2C0
:1058700062F3820385F84B3094F80038052B0AD880
:10588000DFE803F00C034B54094B6FF00F0528467B
:1058900004B0BDE8F0876FF00405F8E7D4F80C58C1
:1058A000002DF4D02D78206800220023CDE90023BC
:1058B00000231A462946FDF7D3FA064650B3D4F81A
:1058C0000C182A4601311BF083FF00281FDB94F8D7
:1058D000183886F8493094F91938AE339BB2FE2B4C
:1058E00028BFFE2386F84A3030461BF0EBFD2068C7
:1058F000314607F02FF9002530461BF090FDD4F813
:105900000C081EF0DFF80023C4F80C38BFE76FF076
:105910000B05F1E76FF00B05F1E76FF02205B6E735
:105920006FF07905B3E76FF08505B0E76FF06805B4
:10593000ADE700BF800B002070B4114D00232C4652
:10594000D5F86C6536B10133142B05F11805F7D184
:1059500070BC704718256B43E51803F5AD6385F8F7
:105960007825B4F84827C5F86C0585F87915A5F8A9
:105970007A25A4F84867E118024870BC1FF012BAF3
:10598000800B0020C810002007B50246FFF7BCFEC0
:10599000531E072B18D8DFE803F019041517171743
:1059A000171901238DF80730094B0022A3F8482767
:1059B000D3F824381BB10DF107020121984703B039
:1059C0005DF804FB0223EDE70323EBE70023E9E79F
:1059D000800B00204378054AC3F3001382F8483750
:1059E0004378C3F3C00382F849377047800B002027
:1059F0000B4B002283F800280A7883F82A284A787B
:105A000083F82B288A68C3F80C2832B191F90D204D
:105A100083F819288A7B83F81828024808F0DCB834
:105A2000800B0020E8120020064880F80018137848
:105A300080F82A38537880F82B3800F5ED6008F0AC
:105A4000CBB800BF800B0020034B83F8640703F240
:105A50004C7008F0C1B800BF800B00200348002341
:105A600080F8643700F24C7008F0B6B8800B002064
:105A700010B5084BD3F82048024654B10021C3F8B2
:105A80002018FFF741FE234692F90010BDE81040B0
:105A9000184710BD800B002010B5074BD3F8202805
:105AA0004AB10021C3F82018FFF72EFE47F6FF7118
:105AB000BDE81040104710BD800B0020036803F0C4
:105AC0001F025B09026004D0012B034818BF0020AD
:105AD00070474FF0A0407047000300502DE9F04F91
